{
  "_format": "hh-sol-artifact-1",
  "contractName": "DoctorSBT",
  "sourceName": "contracts/DoctorSBT.sol",
  "abi": [
    {
      "inputs": [],
      "stateMutability": "nonpayable",
      "type": "constructor"
    },
    {
      "inputs": [
        {
          "internalType": "address",
          "name": "sender",
          "type": "address"
        },
        {
          "internalType": "uint256",
          "name": "tokenId",
          "type": "uint256"
        },
        {
          "internalType": "address",
          "name": "owner",
          "type": "address"
        }
      ],
      "name": "ERC721IncorrectOwner",
      "type": "error"
    },
    {
      "inputs": [
        {
          "internalType": "address",
          "name": "operator",
          "type": "address"
        },
        {
          "internalType": "uint256",
          "name": "tokenId",
          "type": "uint256"
        }
      ],
      "name": "ERC721InsufficientApproval",
      "type": "error"
    },
    {
      "inputs": [
        {
          "internalType": "address",
          "name": "approver",
          "type": "address"
        }
      ],
      "name": "ERC721InvalidApprover",
      "type": "error"
    },
    {
      "inputs": [
        {
          "internalType": "address",
          "name": "operator",
          "type": "address"
        }
      ],
      "name": "ERC721InvalidOperator",
      "type": "error"
    },
    {
      "inputs": [
        {
          "internalType": "address",
          "name": "owner",
          "type": "address"
        }
      ],
      "name": "ERC721InvalidOwner",
      "type": "error"
    },
    {
      "inputs": [
        {
          "internalType": "address",
          "name": "receiver",
          "type": "address"
        }
      ],
      "name": "ERC721InvalidReceiver",
      "type": "error"
    },
    {
      "inputs": [
        {
          "internalType": "address",
          "name": "sender",
          "type": "address"
        }
      ],
      "name": "ERC721InvalidSender",
      "type": "error"
    },
    {
      "inputs": [
        {
          "internalType": "uint256",
          "name": "tokenId",
          "type": "uint256"
        }
      ],
      "name": "ERC721NonexistentToken",
      "type": "error"
    },
    {
      "inputs": [
        {
          "internalType": "address",
          "name": "owner",
          "type": "address"
        }
      ],
      "name": "OwnableInvalidOwner",
      "type": "error"
    },
    {
      "inputs": [
        {
          "internalType": "address",
          "name": "account",
          "type": "address"
        }
      ],
      "name": "OwnableUnauthorizedAccount",
      "type": "error"
    },
    {
      "anonymous": false,
      "inputs": [
        {
          "indexed": true,
          "internalType": "address",
          "name": "owner",
          "type": "address"
        },
        {
          "indexed": true,
          "internalType": "address",
          "name": "approved",
          "type": "address"
        },
        {
          "indexed": true,
          "internalType": "uint256",
          "name": "tokenId",
          "type": "uint256"
        }
      ],
      "name": "Approval",
      "type": "event"
    },
    {
      "anonymous": false,
      "inputs": [
        {
          "indexed": true,
          "internalType": "address",
          "name": "owner",
          "type": "address"
        },
        {
          "indexed": true,
          "internalType": "address",
          "name": "operator",
          "type": "address"
        },
        {
          "indexed": false,
          "internalType": "bool",
          "name": "approved",
          "type": "bool"
        }
      ],
      "name": "ApprovalForAll",
      "type": "event"
    },
    {
      "anonymous": false,
      "inputs": [
        {
          "indexed": true,
          "internalType": "uint256",
          "name": "tokenId",
          "type": "uint256"
        },
        {
          "indexed": true,
          "internalType": "address",
          "name": "doctor",
          "type": "address"
        },
        {
          "indexed": false,
          "internalType": "string",
          "name": "specialty",
          "type": "string"
        },
        {
          "indexed": false,
          "internalType": "uint8",
          "name": "tier",
          "type": "uint8"
        },
        {
          "indexed": false,
          "internalType": "uint256",
          "name": "timestamp",
          "type": "uint256"
        }
      ],
      "name": "DoctorMinted",
      "type": "event"
    },
    {
      "anonymous": false,
      "inputs": [
        {
          "indexed": true,
          "internalType": "address",
          "name": "previousOwner",
          "type": "address"
        },
        {
          "indexed": true,
          "internalType": "address",
          "name": "newOwner",
          "type": "address"
        }
      ],
      "name": "OwnershipTransferred",
      "type": "event"
    },
    {
      "anonymous": false,
      "inputs": [
        {
          "indexed": true,
          "internalType": "uint256",
          "name": "tokenId",
          "type": "uint256"
        },
        {
          "indexed": false,
          "internalType": "uint256",
          "name": "oldScore",
          "type": "uint256"
        },
        {
          "indexed": false,
          "internalType": "uint256",
          "name": "newScore",
          "type": "uint256"
        },
        {
          "indexed": false,
          "internalType": "uint256",
          "name": "timestamp",
          "type": "uint256"
        }
      ],
      "name": "ReputationUpdated",
      "type": "event"
    },
    {
      "anonymous": false,
      "inputs": [
        {
          "indexed": true,
          "internalType": "address",
          "name": "from",
          "type": "address"
        },
        {
          "indexed": true,
          "internalType": "address",
          "name": "to",
          "type": "address"
        },
        {
          "indexed": true,
          "internalType": "uint256",
          "name": "tokenId",
          "type": "uint256"
        }
      ],
      "name": "Transfer",
      "type": "event"
    },
    {
      "inputs": [
        {
          "internalType": "address",
          "name": "to",
          "type": "address"
        },
        {
          "internalType": "uint256",
          "name": "tokenId",
          "type": "uint256"
        }
      ],
      "name": "approve",
      "outputs": [],
      "stateMutability": "nonpayable",
      "type": "function"
    },
    {
      "inputs": [
        {
          "internalType": "address",
          "name": "owner",
          "type": "address"
        }
      ],
      "name": "balanceOf",
      "outputs": [
        {
          "internalType": "uint256",
          "name": "",
          "type": "uint256"
        }
      ],
      "stateMutability": "view",
      "type": "function"
    },
    {
      "inputs": [
        {
          "internalType": "address",
          "name": "",
          "type": "address"
        }
      ],
      "name": "doctorToToken",
      "outputs": [
        {
          "internalType": "uint256",
          "name": "",
          "type": "uint256"
        }
      ],
      "stateMutability": "view",
      "type": "function"
    },
    {
      "inputs": [
        {
          "internalType": "uint256",
          "name": "tokenId",
          "type": "uint256"
        }
      ],
      "name": "getApproved",
      "outputs": [
        {
          "internalType": "address",
          "name": "",
          "type": "address"
        }
      ],
      "stateMutability": "view",
      "type": "function"
    },
    {
      "inputs": [
        {
          "internalType": "address",
          "name": "doctor",
          "type": "address"
        }
      ],
      "name": "getProfileByAddress",
      "outputs": [
        {
          "components": [
            {
              "internalType": "string",
              "name": "specialty",
              "type": "string"
            },
            {
              "internalType": "uint8",
              "name": "tier",
              "type": "uint8"
            },
            {
              "internalType": "uint256",
              "name": "reputationScore",
              "type": "uint256"
            },
            {
              "internalType": "uint256",
              "name": "annotationCount",
              "type": "uint256"
            }
          ],
          "internalType": "struct DoctorSBT.DoctorProfile",
          "name": "",
          "type": "tuple"
        }
      ],
      "stateMutability": "view",
      "type": "function"
    },
    {
      "inputs": [
        {
          "internalType": "address",
          "name": "owner",
          "type": "address"
        },
        {
          "internalType": "address",
          "name": "operator",
          "type": "address"
        }
      ],
      "name": "isApprovedForAll",
      "outputs": [
        {
          "internalType": "bool",
          "name": "",
          "type": "bool"
        }
      ],
      "stateMutability": "view",
      "type": "function"
    },
    {
      "inputs": [
        {
          "internalType": "address",
          "name": "doctor",
          "type": "address"
        },
        {
          "internalType": "string",
          "name": "specialty",
          "type": "string"
        },
        {
          "internalType": "uint8",
          "name": "tier",
          "type": "uint8"
        }
      ],
      "name": "mint",
      "outputs": [
        {
          "internalType": "uint256",
          "name": "",
          "type": "uint256"
        }
      ],
      "stateMutability": "nonpayable",
      "type": "function"
    },
    {
      "inputs": [],
      "name": "name",
      "outputs": [
        {
          "internalType": "string",
          "name": "",
          "type": "string"
        }
      ],
      "stateMutability": "view",
      "type": "function"
    },
    {
      "inputs": [],
      "name": "owner",
      "outputs": [
        {
          "internalType": "address",
          "name": "",
          "type": "address"
        }
      ],
      "stateMutability": "view",
      "type": "function"
    },
    {
      "inputs": [
        {
          "internalType": "uint256",
          "name": "tokenId",
          "type": "uint256"
        }
      ],
      "name": "ownerOf",
      "outputs": [
        {
          "internalType": "address",
          "name": "",
          "type": "address"
        }
      ],
      "stateMutability": "view",
      "type": "function"
    },
    {
      "inputs": [
        {
          "internalType": "uint256",
          "name": "",
          "type": "uint256"
        }
      ],
      "name": "profiles",
      "outputs": [
        {
          "internalType": "string",
          "name": "specialty",
          "type": "string"
        },
        {
          "internalType": "uint8",
          "name": "tier",
          "type": "uint8"
        },
        {
          "internalType": "uint256",
          "name": "reputationScore",
          "type": "uint256"
        },
        {
          "internalType": "uint256",
          "name": "annotationCount",
          "type": "uint256"
        }
      ],
      "stateMutability": "view",
      "type": "function"
    },
    {
      "inputs": [],
      "name": "renounceOwnership",
      "outputs": [],
      "stateMutability": "nonpayable",
      "type": "function"
    },
    {
      "inputs": [
        {
          "internalType": "address",
          "name": "from",
          "type": "address"
        },
        {
          "internalType": "address",
          "name": "to",
          "type": "address"
        },
        {
          "internalType": "uint256",
          "name": "tokenId",
          "type": "uint256"
        }
      ],
      "name": "safeTransferFrom",
      "outputs": [],
      "stateMutability": "nonpayable",
      "type": "function"
    },
    {
      "inputs": [
        {
          "internalType": "address",
          "name": "from",
          "type": "address"
        },
        {
          "internalType": "address",
          "name": "to",
          "type": "address"
        },
        {
          "internalType": "uint256",
          "name": "tokenId",
          "type": "uint256"
        },
        {
          "internalType": "bytes",
          "name": "data",
          "type": "bytes"
        }
      ],
      "name": "safeTransferFrom",
      "outputs": [],
      "stateMutability": "nonpayable",
      "type": "function"
    },
    {
      "inputs": [
        {
          "internalType": "address",
          "name": "operator",
          "type": "address"
        },
        {
          "internalType": "bool",
          "name": "approved",
          "type": "bool"
        }
      ],
      "name": "setApprovalForAll",
      "outputs": [],
      "stateMutability": "nonpayable",
      "type": "function"
    },
    {
      "inputs": [
        {
          "internalType": "bytes4",
          "name": "interfaceId",
          "type": "bytes4"
        }
      ],
      "name": "supportsInterface",
      "outputs": [
        {
          "internalType": "bool",
          "name": "",
          "type": "bool"
        }
      ],
      "stateMutability": "view",
      "type": "function"
    },
    {
      "inputs": [],
      "name": "symbol",
      "outputs": [
        {
          "internalType": "string",
          "name": "",
          "type": "string"
        }
      ],
      "stateMutability": "view",
      "type": "function"
    },
    {
      "inputs": [
        {
          "internalType": "uint256",
          "name": "tokenId",
          "type": "uint256"
        }
      ],
      "name": "tokenURI",
      "outputs": [
        {
          "internalType": "string",
          "name": "",
          "type": "string"
        }
      ],
      "stateMutability": "view",
      "type": "function"
    },
    {
      "inputs": [
        {
          "internalType": "address",
          "name": "from",
          "type": "address"
        },
        {
          "internalType": "address",
          "name": "to",
          "type": "address"
        },
        {
          "internalType": "uint256",
          "name": "tokenId",
          "type": "uint256"
        }
      ],
      "name": "transferFrom",
      "outputs": [],
      "stateMutability": "nonpayable",
      "type": "function"
    },
    {
      "inputs": [
        {
          "internalType": "address",
          "name": "newOwner",
          "type": "address"
        }
      ],
      "name": "transferOwnership",
      "outputs": [],
      "stateMutability": "nonpayable",
      "type": "function"
    },
    {
      "inputs": [
        {
          "internalType": "uint256",
          "name": "tokenId",
          "type": "uint256"
        },
        {
          "internalType": "uint256",
          "name": "newScore",
          "type": "uint256"
        },
        {
          "internalType": "uint256",
          "name": "newAnnotationCount",
          "type": "uint256"
        }
      ],
      "name": "updateReputation",
      "outputs": [],
      "stateMutability": "nonpayable",
      "type": "function"
    }
  ],
  "bytecode": "0x60806040526001600755348015610014575f5ffd5b50336040518060400160405280601581526020017f4d656469416e6e6f746520446f63746f722053425400000000000000000000008152506040518060400160405280600681526020016513515114d09560d21b815250815f908161007991906101ae565b50600161008682826101ae565b5050506001600160a01b0381166100b657604051631e4fbdf760e01b81525f600482015260240160405180910390fd5b6100bf816100c5565b50610268565b600680546001600160a01b038381166001600160a01b0319831681179093556040519116919082907f8be0079c531659141344cd1fd0a4f28419497f9722a3daafe3b4186f6b6457e0905f90a35050565b634e487b7160e01b5f52604160045260245ffd5b600181811c9082168061013e57607f821691505b60208210810361015c57634e487b7160e01b5f52602260045260245ffd5b50919050565b601f8211156101a957805f5260205f20601f840160051c810160208510156101875750805b601f840160051c820191505b818110156101a6575f8155600101610193565b50505b505050565b81516001600160401b038111156101c7576101c7610116565b6101db816101d5845461012a565b84610162565b6020601f82116001811461020d575f83156101f65750848201515b5f19600385901b1c1916600184901b1784556101a6565b5f84815260208120601f198516915b8281101561023c578785015182556020948501946001909201910161021c565b508482101561025957868401515f19600387901b60f8161c191681555b50505050600190811b01905550565b611fdd806102755f395ff3fe608060405234801561000f575f5ffd5b5060043610610132575f3560e01c806370a08231116100b4578063b88d4fde11610079578063b88d4fde14610287578063c36fe3d61461029a578063c87b56dd146102bd578063e985e9c5146102d0578063ed28da42146102e3578063f2fde38b14610302575f5ffd5b806370a0823114610240578063715018a6146102535780638da5cb5b1461025b57806395d89b411461026c578063a22cb46514610274575f5ffd5b80633b53bb6f116100fa5780633b53bb6f146101c657806342842e0e146101d95780634cd6959c146101ec5780636352211e1461020c5780636a4b88831461021f575f5ffd5b806301ffc9a71461013657806306fdde031461015e578063081812fc14610173578063095ea7b31461019e57806323b872dd146101b3575b5f5ffd5b61014961014436600461178e565b610315565b60405190151581526020015b60405180910390f35b610166610366565b60405161015591906117de565b6101866101813660046117f0565b6103f5565b6040516001600160a01b039091168152602001610155565b6101b16101ac366004611822565b61041c565b005b6101b16101c136600461184a565b61042b565b6101b16101d4366004611884565b6104b9565b6101b16101e736600461184a565b610683565b6101ff6101fa3660046118ad565b6106a2565b60405161015591906118c6565b61018661021a3660046117f0565b6107f9565b61023261022d36600461190e565b610803565b604051908152602001610155565b61023261024e3660046118ad565b6109dd565b6101b1610a22565b6006546001600160a01b0316610186565b610166610a35565b6101b16102823660046119a4565b610a44565b6101b16102953660046119f1565b610a4f565b6102ad6102a83660046117f0565b610a67565b6040516101559493929190611ace565b6101666102cb3660046117f0565b610b1a565b6101496102de366004611aff565b610dab565b6102326102f13660046118ad565b60096020525f908152604090205481565b6101b16103103660046118ad565b610dd8565b5f6001600160e01b031982166380ac58cd60e01b148061034557506001600160e01b03198216635b5e139f60e01b145b8061036057506301ffc9a760e01b6001600160e01b03198316145b92915050565b60605f805461037490611b30565b80601f01602080910402602001604051908101604052809291908181526020018280546103a090611b30565b80156103eb5780601f106103c2576101008083540402835291602001916103eb565b820191905f5260205f20905b8154815290600101906020018083116103ce57829003601f168201915b5050505050905090565b5f6103ff82610e15565b505f828152600460205260409020546001600160a01b0316610360565b610427828233610e4d565b5050565b6001600160a01b03821661045957604051633250574960e11b81525f60048201526024015b60405180910390fd5b5f610465838333610e5a565b9050836001600160a01b0316816001600160a01b0316146104b3576040516364283d7b60e01b81526001600160a01b0380861660048301526024820184905282166044820152606401610450565b50505050565b6104c1610ecb565b5f838152600260205260409020546001600160a01b031661051b5760405162461bcd60e51b8152602060048201526014602482015273151bdad95b88191bd95cc81b9bdd08195e1a5cdd60621b6044820152606401610450565b60648211156105615760405162461bcd60e51b815260206004820152601260248201527153636f7265206f7574206f662072616e676560701b6044820152606401610450565b5f838152600860205260409020600281018054908490556003909101829055606283106105a8575f848152600860205260409020600101805460ff1916600417905561063b565b605a83106105d0575f848152600860205260409020600101805460ff1916600317905561063b565b605083106105f8575f848152600860205260409020600101805460ff1916600217905561063b565b603c8310610622575f8481526008602052604090206001908101805460ff1916909117905561063b565b5f848152600860205260409020600101805460ff191690555b60408051828152602081018590524281830152905185917faf5692cc9b8ad144229fa0e32a83390bd644dbc02cc27ee00a357da85b2d4759919081900360600190a250505050565b61069d83838360405180602001604052805f815250610a4f565b505050565b6106cd6040518060800160405280606081526020015f60ff1681526020015f81526020015f81525090565b6001600160a01b0382165f90815260096020526040812054908190036107295760405162461bcd60e51b8152602060048201526011602482015270111bd8dd1bdc881a185cc81b9bc814d095607a1b6044820152606401610450565b5f818152600860205260409081902081516080810190925280548290829061075090611b30565b80601f016020809104026020016040519081016040528092919081815260200182805461077c90611b30565b80156107c75780601f1061079e576101008083540402835291602001916107c7565b820191905f5260205f20905b8154815290600101906020018083116107aa57829003601f168201915b5050509183525050600182015460ff166020820152600282015460408201526003909101546060909101529392505050565b5f61036082610e15565b5f61080c610ecb565b6001600160a01b0385165f908152600960205260409020541561086a5760405162461bcd60e51b8152602060048201526016602482015275111bd8dd1bdc88185b1c9958591e481a185cc814d09560521b6044820152606401610450565b60048260ff1611156108ad5760405162461bcd60e51b815260206004820152600c60248201526b24b73b30b634b2103a34b2b960a11b6044820152606401610450565b600780545f91826108bd83611b7c565b9190505590506108cd8682610ef8565b604051806080016040528086868080601f0160208091040260200160405190810160405280939291908181526020018383808284375f92018290525093855250505060ff8616602080840191909152603260408085019190915260609093018290528482526008905220815181906109459082611bd8565b5060208281015160018301805460ff191660ff90921691909117905560408084015160028401556060909301516003909201919091556001600160a01b0388165f818152600990925290829020839055905182907fb6f2829922bc213cca405bcc60c523c046ec37a48e2255851a4df2e1e0731033906109cc908990899089904290611c93565b60405180910390a395945050505050565b5f6001600160a01b038216610a07576040516322718ad960e21b81525f6004820152602401610450565b506001600160a01b03165f9081526003602052604090205490565b610a2a610ecb565b610a335f610f11565b565b60606001805461037490611b30565b610427338383610f62565b610a5a84848461042b565b6104b33385858585611029565b60086020525f9081526040902080548190610a8190611b30565b80601f0160208091040260200160405190810160405280929190818152602001828054610aad90611b30565b8015610af85780601f10610acf57610100808354040283529160200191610af8565b820191905f5260205f20905b815481529060010190602001808311610adb57829003601f168201915b5050505060018301546002840154600390940154929360ff9091169290915084565b5f818152600260205260409020546060906001600160a01b0316610b775760405162461bcd60e51b8152602060048201526014602482015273151bdad95b88191bd95cc81b9bdd08195e1a5cdd60621b6044820152606401610450565b5f82815260086020526040808220815160808101909252805482908290610b9d90611b30565b80601f0160208091040260200160405190810160405280929190818152602001828054610bc990611b30565b8015610c145780601f10610beb57610100808354040283529160200191610c14565b820191905f5260205f20905b815481529060010190602001808311610bf757829003601f168201915b5050509183525050600182015460ff908116602080840191909152600284015460408401526003909301546060928301529183015192935091165f03610c77575060408051808201909152600681526542726f6e7a6560d01b6020820152610d2b565b816020015160ff16600103610ca9575060408051808201909152600681526529b4b63b32b960d11b6020820152610d2b565b816020015160ff16600203610cd9575060408051808201909152600481526311dbdb1960e21b6020820152610d2b565b816020015160ff16600303610d0d5750604080518082019091526008815267506c6174696e756d60c01b6020820152610d2b565b50604080518082019091526005815264456c69746560d81b60208201525b5f610d3585611151565b835f015183610d478660400151611151565b610d548760600151611151565b604051602001610d68959493929190611ceb565b6040516020818303038152906040529050610d82816111e1565b604051602001610d929190611ed6565b6040516020818303038152906040529350505050919050565b6001600160a01b039182165f90815260056020908152604080832093909416825291909152205460ff1690565b610de0610ecb565b6001600160a01b038116610e0957604051631e4fbdf760e01b81525f6004820152602401610450565b610e1281610f11565b50565b5f818152600260205260408120546001600160a01b03168061036057604051637e27328960e01b815260048101849052602401610450565b61069d83838360016111ed565b5f828152600260205260408120546001600160a01b03168015610eb75760405162461bcd60e51b81526020600482015260156024820152745342543a206e6f6e2d7472616e7366657261626c6560581b6044820152606401610450565b610ec28585856112f1565b95945050505050565b6006546001600160a01b03163314610a335760405163118cdaa760e01b8152336004820152602401610450565b610427828260405180602001604052805f8152506113e3565b600680546001600160a01b038381166001600160a01b0319831681179093556040519116919082907f8be0079c531659141344cd1fd0a4f28419497f9722a3daafe3b4186f6b6457e0905f90a35050565b6001600160a01b038316610f8b5760405163a9fbf51f60e01b81525f6004820152602401610450565b6001600160a01b038216610fbd57604051630b61174360e31b81526001600160a01b0383166004820152602401610450565b6001600160a01b038381165f81815260056020908152604080832094871680845294825291829020805460ff191686151590811790915591519182527f17307eab39ab6107e8899845ad3d59bd9653f200f220920489ca2b5937696c31910160405180910390a3505050565b6001600160a01b0383163b1561114a57604051630a85bd0160e11b81526001600160a01b0384169063150b7a029061106b908890889087908790600401611f07565b6020604051808303815f875af19250505080156110a5575060408051601f3d908101601f191682019092526110a291810190611f43565b60015b61110c573d8080156110d2576040519150601f19603f3d011682016040523d82523d5f602084013e6110d7565b606091505b5080515f0361110457604051633250574960e11b81526001600160a01b0385166004820152602401610450565b805160208201fd5b6001600160e01b03198116630a85bd0160e11b1461114857604051633250574960e11b81526001600160a01b0385166004820152602401610450565b505b5050505050565b60605f61115d836113fa565b60010190505f8167ffffffffffffffff81111561117c5761117c6119dd565b6040519080825280601f01601f1916602001820160405280156111a6576020820181803683370190505b5090508181016020015b5f19016f181899199a1a9b1b9c1cb0b131b232b360811b600a86061a8153600a85049450846111b057509392505050565b6060610360825f6114d1565b808061120157506001600160a01b03821615155b156112c2575f61121084610e15565b90506001600160a01b0383161580159061123c5750826001600160a01b0316816001600160a01b031614155b801561124f575061124d8184610dab565b155b156112785760405163a9fbf51f60e01b81526001600160a01b0384166004820152602401610450565b81156112c05783856001600160a01b0316826001600160a01b03167f8c5be1e5ebec7d5bd14f71427d1e84f3dd0314c0f7b2291e5b200ac8c7c3b92560405160405180910390a45b505b50505f90815260046020526040902080546001600160a01b0319166001600160a01b0392909216919091179055565b5f828152600260205260408120546001600160a01b039081169083161561131d5761131d818486611650565b6001600160a01b03811615611357576113385f855f5f6111ed565b6001600160a01b0381165f90815260036020526040902080545f190190555b6001600160a01b03851615611385576001600160a01b0385165f908152600360205260409020805460010190555b5f8481526002602052604080822080546001600160a01b0319166001600160a01b0389811691821790925591518793918516917fddf252ad1be2c89b69c2b068fc378daa952ba7f163c4a11628f55a4df523b3ef91a4949350505050565b6113ed83836116b4565b61069d335f858585611029565b5f8072184f03e93ff9f4daa797ed6e38ed64bf6a1f0160401b83106114385772184f03e93ff9f4daa797ed6e38ed64bf6a1f0160401b830492506040015b6d04ee2d6d415b85acef81000000008310611464576d04ee2d6d415b85acef8100000000830492506020015b662386f26fc10000831061148257662386f26fc10000830492506010015b6305f5e100831061149a576305f5e100830492506008015b61271083106114ae57612710830492506004015b606483106114c0576064830492506002015b600a83106103605760010192915050565b606082515f036114ef575060408051602081019091525f8152610360565b5f8261151f576003845160026115059190611f5e565b61150f9190611f71565b61151a906004611f90565b611544565b60038451600461152f9190611f90565b61153a906002611f5e565b6115449190611f71565b905060405191507f4142434445464748494a4b4c4d4e4f505152535455565758595a616263646566601f5261067083027f6768696a6b6c6d6e6f707172737475767778797a303132333435363738392b2f18603f526020820181810185865187016020810180515f82525b82841015611602576003840193508351603f8160121c16518753600187019650603f81600c1c16518753600187019650603f8160061c16518753600187019650603f8116518753506001860195506115af565b90525085905061164357600386510660018114611626576002811461163957611641565b603d6001840353603d6002840353611641565b603d60018403535b505b9183525060405292915050565b61165b838383611715565b61069d576001600160a01b03831661168957604051637e27328960e01b815260048101829052602401610450565b60405163177e802f60e01b81526001600160a01b038316600482015260248101829052604401610450565b6001600160a01b0382166116dd57604051633250574960e11b81525f6004820152602401610450565b5f6116e983835f610e5a565b90506001600160a01b0381161561069d576040516339e3563760e11b81525f6004820152602401610450565b5f6001600160a01b038316158015906117715750826001600160a01b0316846001600160a01b0316148061174e575061174e8484610dab565b8061177157505f828152600460205260409020546001600160a01b038481169116145b949350505050565b6001600160e01b031981168114610e12575f5ffd5b5f6020828403121561179e575f5ffd5b81356117a981611779565b9392505050565b5f81518084528060208401602086015e5f602082860101526020601f19601f83011685010191505092915050565b602081525f6117a960208301846117b0565b5f60208284031215611800575f5ffd5b5035919050565b80356001600160a01b038116811461181d575f5ffd5b919050565b5f5f60408385031215611833575f5ffd5b61183c83611807565b946020939093013593505050565b5f5f5f6060848603121561185c575f5ffd5b61186584611807565b925061187360208501611807565b929592945050506040919091013590565b5f5f5f60608486031215611896575f5ffd5b505081359360208301359350604090920135919050565b5f602082840312156118bd575f5ffd5b6117a982611807565b602081525f8251608060208401526118e160a08401826117b0565b905060ff602085015116604084015260408401516060840152606084015160808401528091505092915050565b5f5f5f5f60608587031215611921575f5ffd5b61192a85611807565b9350602085013567ffffffffffffffff811115611945575f5ffd5b8501601f81018713611955575f5ffd5b803567ffffffffffffffff81111561196b575f5ffd5b87602082840101111561197c575f5ffd5b60209190910193509150604085013560ff81168114611999575f5ffd5b939692955090935050565b5f5f604083850312156119b5575f5ffd5b6119be83611807565b9150602083013580151581146119d2575f5ffd5b809150509250929050565b634e487b7160e01b5f52604160045260245ffd5b5f5f5f5f60808587031215611a04575f5ffd5b611a0d85611807565b9350611a1b60208601611807565b925060408501359150606085013567ffffffffffffffff811115611a3d575f5ffd5b8501601f81018713611a4d575f5ffd5b803567ffffffffffffffff811115611a6757611a676119dd565b604051601f8201601f19908116603f0116810167ffffffffffffffff81118282101715611a9657611a966119dd565b604052818152828201602001891015611aad575f5ffd5b816020840160208301375f6020838301015280935050505092959194509250565b608081525f611ae060808301876117b0565b60ff959095166020830152506040810192909252606090910152919050565b5f5f60408385031215611b10575f5ffd5b611b1983611807565b9150611b2760208401611807565b90509250929050565b600181811c90821680611b4457607f821691505b602082108103611b6257634e487b7160e01b5f52602260045260245ffd5b50919050565b634e487b7160e01b5f52601160045260245ffd5b5f60018201611b8d57611b8d611b68565b5060010190565b601f82111561069d57805f5260205f20601f840160051c81016020851015611bb95750805b601f840160051c820191505b8181101561114a575f8155600101611bc5565b815167ffffffffffffffff811115611bf257611bf26119dd565b611c0681611c008454611b30565b84611b94565b6020601f821160018114611c38575f8315611c215750848201515b5f19600385901b1c1916600184901b17845561114a565b5f84815260208120601f198516915b82811015611c675787850151825560209485019460019092019101611c47565b5084821015611c8457868401515f19600387901b60f8161c191681555b50505050600190811b01905550565b60608152836060820152838560808301375f608085830101525f6080601f19601f870116830101905060ff8416602083015282604083015295945050505050565b5f81518060208401855e5f93019283525090919050565b7f7b226e616d65223a224d656469416e6e6f746520446f63746f7220230000000081525f611d1c601c830188611cd4565b7f222c226465736372697074696f6e223a225665726966696564204d656469636181527f6c20416e6e6f7461746f7220536f756c626f756e6420546f6b656e222c00000060208201526d2261747472696275746573223a5b60901b603d8201527f7b2274726169745f74797065223a225370656369616c7479222c2276616c7565604b82015262111d1160e91b606b820152611dbb606e820188611cd4565b62089f4b60ea1b81527f7b2274726169745f74797065223a2254696572222c2276616c7565223a22000060038201529050611df96021820187611cd4565b62089f4b60ea1b8152905060038101611ec9611ebb611eae611ea8611e6d611e5f611e59877f7b2274726169745f74797065223a2252657075746174696f6e2053636f72652281526816113b30b63ab2911d60b91b602082015260290190565b8c611cd4565b611f4b60f21b815260020190565b7f7b2274726169745f74797065223a22416e6e6f746174696f6e20436f756e742281526816113b30b63ab2911d60b91b602082015260290190565b88611cd4565b607d60f81b815260010190565b615d7d60f01b815260020190565b9998505050505050505050565b7f646174613a6170706c69636174696f6e2f6a736f6e3b6261736536342c00000081525f6117a9601d830184611cd4565b6001600160a01b03858116825284166020820152604081018390526080606082018190525f90611f39908301846117b0565b9695505050505050565b5f60208284031215611f53575f5ffd5b81516117a981611779565b8082018082111561036057610360611b68565b5f82611f8b57634e487b7160e01b5f52601260045260245ffd5b500490565b808202811582820484141761036057610360611b6856fea2646970667358221220b57f4fc8abb10c942322b284ab7cc9361b8b0c45bf78c13b438b7cf0fcd108ce64736f6c634300081c0033",
  "linkReferences": {},
  "deployedLinkReferences": {}
}