{
  "_format": "hh-sol-artifact-1",
  "contractName": "AnnotationEscrow",
  "sourceName": "contracts/AnnotationEscrow.sol",
  "abi": [
    {
      "inputs": [
        {
          "internalType": "address",
          "name": "_paymentToken",
          "type": "address"
        },
        {
          "internalType": "address",
          "name": "_treasury",
          "type": "address"
        }
      ],
      "stateMutability": "nonpayable",
      "type": "constructor"
    },
    {
      "inputs": [
        {
          "internalType": "address",
          "name": "owner",
          "type": "address"
        }
      ],
      "name": "OwnableInvalidOwner",
      "type": "error"
    },
    {
      "inputs": [
        {
          "internalType": "address",
          "name": "account",
          "type": "address"
        }
      ],
      "name": "OwnableUnauthorizedAccount",
      "type": "error"
    },
    {
      "inputs": [],
      "name": "ReentrancyGuardReentrantCall",
      "type": "error"
    },
    {
      "anonymous": false,
      "inputs": [
        {
          "indexed": true,
          "internalType": "bytes32",
          "name": "batchId",
          "type": "bytes32"
        },
        {
          "indexed": false,
          "internalType": "bytes32",
          "name": "insightHash",
          "type": "bytes32"
        },
        {
          "indexed": false,
          "internalType": "uint256",
          "name": "timestamp",
          "type": "uint256"
        }
      ],
      "name": "AiInsightRecorded",
      "type": "event"
    },
    {
      "anonymous": false,
      "inputs": [
        {
          "indexed": true,
          "internalType": "bytes32",
          "name": "batchId",
          "type": "bytes32"
        },
        {
          "indexed": true,
          "internalType": "address",
          "name": "annotator",
          "type": "address"
        },
        {
          "indexed": false,
          "internalType": "bytes32",
          "name": "annotationHash",
          "type": "bytes32"
        },
        {
          "indexed": false,
          "internalType": "uint256",
          "name": "timestamp",
          "type": "uint256"
        }
      ],
      "name": "AnnotationRecorded",
      "type": "event"
    },
    {
      "anonymous": false,
      "inputs": [
        {
          "indexed": true,
          "internalType": "bytes32",
          "name": "batchId",
          "type": "bytes32"
        },
        {
          "indexed": true,
          "internalType": "address",
          "name": "company",
          "type": "address"
        },
        {
          "indexed": false,
          "internalType": "uint256",
          "name": "amount",
          "type": "uint256"
        },
        {
          "indexed": false,
          "internalType": "address[]",
          "name": "annotators",
          "type": "address[]"
        },
        {
          "indexed": false,
          "internalType": "uint256",
          "name": "timestamp",
          "type": "uint256"
        }
      ],
      "name": "FundsDeposited",
      "type": "event"
    },
    {
      "anonymous": false,
      "inputs": [
        {
          "indexed": true,
          "internalType": "bytes32",
          "name": "batchId",
          "type": "bytes32"
        },
        {
          "indexed": false,
          "internalType": "uint256",
          "name": "totalDistributed",
          "type": "uint256"
        },
        {
          "indexed": false,
          "internalType": "uint256",
          "name": "platformFee",
          "type": "uint256"
        },
        {
          "indexed": false,
          "internalType": "uint256",
          "name": "timestamp",
          "type": "uint256"
        }
      ],
      "name": "FundsReleased",
      "type": "event"
    },
    {
      "anonymous": false,
      "inputs": [
        {
          "indexed": true,
          "internalType": "address",
          "name": "previousOwner",
          "type": "address"
        },
        {
          "indexed": true,
          "internalType": "address",
          "name": "newOwner",
          "type": "address"
        }
      ],
      "name": "OwnershipTransferred",
      "type": "event"
    },
    {
      "inputs": [
        {
          "internalType": "bytes32",
          "name": "",
          "type": "bytes32"
        },
        {
          "internalType": "uint256",
          "name": "",
          "type": "uint256"
        }
      ],
      "name": "aiInsightHashes",
      "outputs": [
        {
          "internalType": "bytes32",
          "name": "",
          "type": "bytes32"
        }
      ],
      "stateMutability": "view",
      "type": "function"
    },
    {
      "inputs": [
        {
          "internalType": "bytes32",
          "name": "",
          "type": "bytes32"
        },
        {
          "internalType": "uint256",
          "name": "",
          "type": "uint256"
        }
      ],
      "name": "annotationHashes",
      "outputs": [
        {
          "internalType": "bytes32",
          "name": "",
          "type": "bytes32"
        }
      ],
      "stateMutability": "view",
      "type": "function"
    },
    {
      "inputs": [
        {
          "internalType": "bytes32",
          "name": "",
          "type": "bytes32"
        }
      ],
      "name": "batches",
      "outputs": [
        {
          "internalType": "address",
          "name": "company",
          "type": "address"
        },
        {
          "internalType": "uint256",
          "name": "totalAmount",
          "type": "uint256"
        },
        {
          "internalType": "bool",
          "name": "released",
          "type": "bool"
        },
        {
          "internalType": "bool",
          "name": "exists",
          "type": "bool"
        }
      ],
      "stateMutability": "view",
      "type": "function"
    },
    {
      "inputs": [
        {
          "internalType": "bytes32",
          "name": "batchId",
          "type": "bytes32"
        },
        {
          "internalType": "uint256",
          "name": "amount",
          "type": "uint256"
        }
      ],
      "name": "deposit",
      "outputs": [],
      "stateMutability": "nonpayable",
      "type": "function"
    },
    {
      "inputs": [
        {
          "internalType": "bytes32",
          "name": "batchId",
          "type": "bytes32"
        }
      ],
      "name": "getAiInsightHashes",
      "outputs": [
        {
          "internalType": "bytes32[]",
          "name": "",
          "type": "bytes32[]"
        }
      ],
      "stateMutability": "view",
      "type": "function"
    },
    {
      "inputs": [
        {
          "internalType": "bytes32",
          "name": "batchId",
          "type": "bytes32"
        }
      ],
      "name": "getAnnotationHashes",
      "outputs": [
        {
          "internalType": "bytes32[]",
          "name": "",
          "type": "bytes32[]"
        }
      ],
      "stateMutability": "view",
      "type": "function"
    },
    {
      "inputs": [
        {
          "internalType": "bytes32",
          "name": "batchId",
          "type": "bytes32"
        }
      ],
      "name": "getBatchAnnotators",
      "outputs": [
        {
          "internalType": "address[]",
          "name": "",
          "type": "address[]"
        }
      ],
      "stateMutability": "view",
      "type": "function"
    },
    {
      "inputs": [
        {
          "internalType": "bytes32",
          "name": "batchId",
          "type": "bytes32"
        }
      ],
      "name": "isBatchFunded",
      "outputs": [
        {
          "internalType": "bool",
          "name": "",
          "type": "bool"
        }
      ],
      "stateMutability": "view",
      "type": "function"
    },
    {
      "inputs": [],
      "name": "owner",
      "outputs": [
        {
          "internalType": "address",
          "name": "",
          "type": "address"
        }
      ],
      "stateMutability": "view",
      "type": "function"
    },
    {
      "inputs": [],
      "name": "paymentToken",
      "outputs": [
        {
          "internalType": "contract IERC20",
          "name": "",
          "type": "address"
        }
      ],
      "stateMutability": "view",
      "type": "function"
    },
    {
      "inputs": [],
      "name": "platformFeeBps",
      "outputs": [
        {
          "internalType": "uint256",
          "name": "",
          "type": "uint256"
        }
      ],
      "stateMutability": "view",
      "type": "function"
    },
    {
      "inputs": [
        {
          "internalType": "bytes32",
          "name": "batchId",
          "type": "bytes32"
        },
        {
          "internalType": "bytes32",
          "name": "insightHash",
          "type": "bytes32"
        }
      ],
      "name": "recordAiInsight",
      "outputs": [],
      "stateMutability": "nonpayable",
      "type": "function"
    },
    {
      "inputs": [
        {
          "internalType": "bytes32",
          "name": "batchId",
          "type": "bytes32"
        },
        {
          "internalType": "bytes32",
          "name": "annotationHash",
          "type": "bytes32"
        }
      ],
      "name": "recordAnnotation",
      "outputs": [],
      "stateMutability": "nonpayable",
      "type": "function"
    },
    {
      "inputs": [
        {
          "internalType": "bytes32",
          "name": "batchId",
          "type": "bytes32"
        },
        {
          "internalType": "address[]",
          "name": "annotators",
          "type": "address[]"
        },
        {
          "internalType": "uint256[]",
          "name": "splitBps",
          "type": "uint256[]"
        }
      ],
      "name": "releasePaymentWithSplits",
      "outputs": [],
      "stateMutability": "nonpayable",
      "type": "function"
    },
    {
      "inputs": [],
      "name": "renounceOwnership",
      "outputs": [],
      "stateMutability": "nonpayable",
      "type": "function"
    },
    {
      "inputs": [
        {
          "internalType": "address",
          "name": "newOwner",
          "type": "address"
        }
      ],
      "name": "transferOwnership",
      "outputs": [],
      "stateMutability": "nonpayable",
      "type": "function"
    },
    {
      "inputs": [],
      "name": "treasury",
      "outputs": [
        {
          "internalType": "address",
          "name": "",
          "type": "address"
        }
      ],
      "stateMutability": "view",
      "type": "function"
    }
  ],
  "bytecode": "0x60806040526103e8600355348015610015575f5ffd5b5060405161136738038061136783398101604081905261003491610122565b338061005957604051631e4fbdf760e01b81525f600482015260240160405180910390fd5b610062816100b8565b5060017f9b779b17422d0df92223018b32b4d1fa46e071723d6817e2486d003becc55f0055600180546001600160a01b039384166001600160a01b03199182161790915560028054929093169116179055610153565b5f80546001600160a01b038381166001600160a01b0319831681178455604051919092169283917f8be0079c531659141344cd1fd0a4f28419497f9722a3daafe3b4186f6b6457e09190a35050565b80516001600160a01b038116811461011d575f5ffd5b919050565b5f5f60408385031215610133575f5ffd5b61013c83610107565b915061014a60208401610107565b90509250929050565b611207806101605f395ff3fe608060405234801561000f575f5ffd5b5060043610610106575f3560e01c8063752f872e1161009e578063c30104651161006e578063c30104651461022d578063c81e25ab14610240578063cf2493d5146102b6578063f2fde38b146102c9578063f75f97e1146102dc575f5ffd5b8063752f872e146101d75780638da5cb5b146101ea5780639921f98f146101fa578063b420d26f1461020d575f5ffd5b80634db86d83116100d95780634db86d831461018957806359459475146101a957806361d027b3146101bc578063715018a6146101cf575f5ffd5b80631de26e161461010a57806322dcd13e1461011f5780633013ce291461013b57806346816bd514610166575b5f5ffd5b61011d610118366004610f1c565b6102ef565b005b61012860035481565b6040519081526020015b60405180910390f35b60015461014e906001600160a01b031681565b6040516001600160a01b039091168152602001610132565b610179610174366004610f3c565b610564565b6040519015158152602001610132565b61019c610197366004610f3c565b6105a0565b6040516101329190610f53565b61011d6101b7366004610f1c565b6105ff565b60025461014e906001600160a01b031681565b61011d61069e565b61011d6101e5366004610fdd565b6106b1565b5f546001600160a01b031661014e565b610128610208366004610f1c565b610b8b565b61022061021b366004610f3c565b610bb6565b6040516101329190611099565b61011d61023b366004610f1c565b610c21565b61028461024e366004610f3c565b60046020525f90815260409020805460018201546003909201546001600160a01b03909116919060ff8082169161010090041684565b604080516001600160a01b03909516855260208501939093529015159183019190915215156060820152608001610132565b61019c6102c4366004610f3c565b610cb6565b61011d6102d73660046110b2565b610d13565b6101286102ea366004610f1c565b610d50565b5f82815260046020526040902060030154610100900460ff16156103515760405162461bcd60e51b8152602060048201526014602482015273426174636820616c72656164792065786973747360601b60448201526064015b60405180910390fd5b5f81116103955760405162461bcd60e51b81526020600482015260126024820152710416d6f756e74206d757374206265203e20360741b6044820152606401610348565b6001546040516323b872dd60e01b8152336004820152306024820152604481018390526001600160a01b03909116906323b872dd906064016020604051808303815f875af11580156103e9573d5f5f3e3d5ffd5b505050506040513d601f19601f8201168201806040525081019061040d91906110d8565b61044b5760405162461bcd60e51b815260206004820152600f60248201526e151c985b9cd9995c8819985a5b1959608a1b6044820152606401610348565b6040805160a081018252338152602080820184815283515f80825281840186528486019182526060850181905260016080860181905288825260048552959020845181546001600160a01b0319166001600160a01b03909116178155915194820194909455925180519293926104c79260028501920190610e54565b5060608201516003909101805460809093015115156101000261ff00199215159290921661ffff199093169290921717905533827f601d39dcd45235f0bb388ddd0470b1a49f02ae6eaedc7067b419f9c539cb6f18835f604051908082528060200260200182016040528015610547578160200160208202803683370190505b5042604051610558939291906110f7565b60405180910390a35050565b5f81815260046020526040812060030154610100900460ff16801561059a57505f8281526004602052604090206003015460ff16155b92915050565b5f818152600560209081526040918290208054835181840281018401909452808452606093928301828280156105f357602002820191905f5260205f20905b8154815260200190600101908083116105df575b50505050509050919050565b5f82815260046020526040902060030154610100900460ff166106345760405162461bcd60e51b81526004016103489061111f565b5f828152600660209081526040808320805460018101825590845291909220018290555182907f598a8108210132ea8df3a2057d5666734c2a86e09ff77ccd86f168d408f1ba89906106929084904290918252602082015260400190565b60405180910390a25050565b6106a6610d69565b6106af5f610d95565b565b6106b9610de4565b5f8581526004602052604090206003810154610100900460ff166106ef5760405162461bcd60e51b81526004016103489061111f565b80546001600160a01b031633146107625760405162461bcd60e51b815260206004820152603160248201527f4f6e6c792074686520636f6d70616e792074686174206465706f73697465642060448201527063616e2072656c656173652066756e647360781b6064820152608401610348565b600381015460ff16156107aa5760405162461bcd60e51b815260206004820152601060248201526f105b1c9958591e481c995b19585cd95960821b6044820152606401610348565b836107f75760405162461bcd60e51b815260206004820152601b60248201527f4e656564206174206c65617374206f6e6520616e6e6f7461746f7200000000006044820152606401610348565b83821461083f5760405162461bcd60e51b8152602060048201526016602482015275082e4e4c2f2e640d8cadccee8d040dad2e6dac2e8c6d60531b6044820152606401610348565b5f805b838110156108785784848281811061085c5761085c61114d565b905060200201358261086e9190611175565b9150600101610842565b5080612710146108ca5760405162461bcd60e51b815260206004820152601f60248201527f53706c697473206d7573742073756d20746f20313030303020283130302529006044820152606401610348565b60038201805460ff191660011790556108e7600283018787610eb7565b5060018201546003545f90612710906109009084611188565b61090a919061119f565b90505f61091782846111be565b60015460025460405163a9059cbb60e01b81526001600160a01b03918216600482015260248101869052929350169063a9059cbb906044016020604051808303815f875af115801561096b573d5f5f3e3d5ffd5b505050506040513d601f19601f8201168201806040525081019061098f91906110d8565b6109d15760405162461bcd60e51b8152602060048201526013602482015272119959481d1c985b9cd9995c8819985a5b1959606a1b6044820152606401610348565b5f5b6002860154811015610b13575f6127108989848181106109f5576109f561114d565b9050602002013584610a079190611188565b610a11919061119f565b90508015610b0a576001546002880180546001600160a01b039092169163a9059cbb919085908110610a4557610a4561114d565b5f9182526020909120015460405160e083901b6001600160e01b03191681526001600160a01b039091166004820152602481018490526044016020604051808303815f875af1158015610a9a573d5f5f3e3d5ffd5b505050506040513d601f19601f82011682018060405250810190610abe91906110d8565b610b0a5760405162461bcd60e51b815260206004820152601960248201527f416e6e6f7461746f72207472616e73666572206661696c6564000000000000006044820152606401610348565b506001016109d3565b506040805182815260208101849052428183015290518b917f48ab3fb0f8e8e2edf2ef06adc148522f1732f5578611ee80242452093346b07c919081900360600190a25050505050610b8460017f9b779b17422d0df92223018b32b4d1fa46e071723d6817e2486d003becc55f0055565b5050505050565b6006602052815f5260405f208181548110610ba4575f80fd5b905f5260205f20015f91509150505481565b5f818152600460209081526040918290206002018054835181840281018401909452808452606093928301828280156105f357602002820191905f5260205f20905b81546001600160a01b03168152600190910190602001808311610bf85750505050509050919050565b5f82815260046020526040902060030154610100900460ff16610c565760405162461bcd60e51b81526004016103489061111f565b5f8281526005602090815260408083208054600181018255908452919092200182905551339083907f054eb879aed070a1ed0dbb28098937829b157152d8ab2882319f25fcd30c0b91906105589085904290918252602082015260400190565b5f818152600660209081526040918290208054835181840281018401909452808452606093928301828280156105f357602002820191905f5260205f20908154815260200190600101908083116105df5750505050509050919050565b610d1b610d69565b6001600160a01b038116610d4457604051631e4fbdf760e01b81525f6004820152602401610348565b610d4d81610d95565b50565b6005602052815f5260405f208181548110610ba4575f80fd5b5f546001600160a01b031633146106af5760405163118cdaa760e01b8152336004820152602401610348565b5f80546001600160a01b038381166001600160a01b0319831681178455604051919092169283917f8be0079c531659141344cd1fd0a4f28419497f9722a3daafe3b4186f6b6457e09190a35050565b610dec610e12565b60027f9b779b17422d0df92223018b32b4d1fa46e071723d6817e2486d003becc55f0055565b7f9b779b17422d0df92223018b32b4d1fa46e071723d6817e2486d003becc55f00546002036106af57604051633ee5aeb560e01b815260040160405180910390fd5b828054828255905f5260205f20908101928215610ea7579160200282015b82811115610ea757825182546001600160a01b0319166001600160a01b03909116178255602090920191600190910190610e72565b50610eb3929150610f08565b5090565b828054828255905f5260205f20908101928215610ea7579160200282015b82811115610ea75781546001600160a01b0319166001600160a01b03843516178255602090920191600190910190610ed5565b5b80821115610eb3575f8155600101610f09565b5f5f60408385031215610f2d575f5ffd5b50508035926020909101359150565b5f60208284031215610f4c575f5ffd5b5035919050565b602080825282518282018190525f918401906040840190835b81811015610f8a578351835260209384019390920191600101610f6c565b509095945050505050565b5f5f83601f840112610fa5575f5ffd5b50813567ffffffffffffffff811115610fbc575f5ffd5b6020830191508360208260051b8501011115610fd6575f5ffd5b9250929050565b5f5f5f5f5f60608688031215610ff1575f5ffd5b85359450602086013567ffffffffffffffff81111561100e575f5ffd5b61101a88828901610f95565b909550935050604086013567ffffffffffffffff811115611039575f5ffd5b61104588828901610f95565b969995985093965092949392505050565b5f8151808452602084019350602083015f5b8281101561108f5781516001600160a01b0316865260209586019590910190600101611068565b5093949350505050565b602081525f6110ab6020830184611056565b9392505050565b5f602082840312156110c2575f5ffd5b81356001600160a01b03811681146110ab575f5ffd5b5f602082840312156110e8575f5ffd5b815180151581146110ab575f5ffd5b838152606060208201525f61110f6060830185611056565b9050826040830152949350505050565b60208082526014908201527310985d18da08191bd95cc81b9bdd08195e1a5cdd60621b604082015260600190565b634e487b7160e01b5f52603260045260245ffd5b634e487b7160e01b5f52601160045260245ffd5b8082018082111561059a5761059a611161565b808202811582820484141761059a5761059a611161565b5f826111b957634e487b7160e01b5f52601260045260245ffd5b500490565b8181038181111561059a5761059a61116156fea2646970667358221220293d99c10353a5c3bbd3fbec5c19e73998cdcc34cc51947422aab45064f6dd1a64736f6c634300081c0033",
  "linkReferences": {},
  "deployedLinkReferences": {}
}