{
  "_format": "hh-sol-artifact-1",
  "contractName": "AnnotationEscrow",
  "sourceName": "contracts/AnnotationEscrow.sol",
  "abi": [
    {
      "inputs": [
        {
          "internalType": "address",
          "name": "_paymentToken",
          "type": "address"
        },
        {
          "internalType": "address",
          "name": "_treasury",
          "type": "address"
        },
        {
          "internalType": "address",
          "name": "_trustedForwarder",
          "type": "address"
        }
      ],
      "stateMutability": "nonpayable",
      "type": "constructor"
    },
    {
      "inputs": [
        {
          "internalType": "address",
          "name": "owner",
          "type": "address"
        }
      ],
      "name": "OwnableInvalidOwner",
      "type": "error"
    },
    {
      "inputs": [
        {
          "internalType": "address",
          "name": "account",
          "type": "address"
        }
      ],
      "name": "OwnableUnauthorizedAccount",
      "type": "error"
    },
    {
      "inputs": [],
      "name": "ReentrancyGuardReentrantCall",
      "type": "error"
    },
    {
      "anonymous": false,
      "inputs": [
        {
          "indexed": true,
          "internalType": "bytes32",
          "name": "batchId",
          "type": "bytes32"
        },
        {
          "indexed": false,
          "internalType": "bytes32",
          "name": "insightHash",
          "type": "bytes32"
        },
        {
          "indexed": false,
          "internalType": "uint256",
          "name": "timestamp",
          "type": "uint256"
        }
      ],
      "name": "AiInsightRecorded",
      "type": "event"
    },
    {
      "anonymous": false,
      "inputs": [
        {
          "indexed": true,
          "internalType": "bytes32",
          "name": "batchId",
          "type": "bytes32"
        },
        {
          "indexed": true,
          "internalType": "address",
          "name": "annotator",
          "type": "address"
        },
        {
          "indexed": false,
          "internalType": "bytes32",
          "name": "merkleRoot",
          "type": "bytes32"
        },
        {
          "indexed": false,
          "internalType": "uint256",
          "name": "timestamp",
          "type": "uint256"
        }
      ],
      "name": "AnnotationBatchRecorded",
      "type": "event"
    },
    {
      "anonymous": false,
      "inputs": [
        {
          "indexed": true,
          "internalType": "bytes32",
          "name": "batchId",
          "type": "bytes32"
        },
        {
          "indexed": true,
          "internalType": "address",
          "name": "annotator",
          "type": "address"
        },
        {
          "indexed": false,
          "internalType": "bytes32",
          "name": "annotationHash",
          "type": "bytes32"
        },
        {
          "indexed": false,
          "internalType": "uint256",
          "name": "timestamp",
          "type": "uint256"
        }
      ],
      "name": "AnnotationRecorded",
      "type": "event"
    },
    {
      "anonymous": false,
      "inputs": [
        {
          "indexed": true,
          "internalType": "bytes32",
          "name": "batchId",
          "type": "bytes32"
        },
        {
          "indexed": true,
          "internalType": "address",
          "name": "disputedBy",
          "type": "address"
        }
      ],
      "name": "BatchDisputed",
      "type": "event"
    },
    {
      "anonymous": false,
      "inputs": [
        {
          "indexed": true,
          "internalType": "bytes32",
          "name": "batchId",
          "type": "bytes32"
        },
        {
          "indexed": true,
          "internalType": "address",
          "name": "company",
          "type": "address"
        },
        {
          "indexed": false,
          "internalType": "uint256",
          "name": "amount",
          "type": "uint256"
        },
        {
          "indexed": false,
          "internalType": "address[]",
          "name": "annotators",
          "type": "address[]"
        },
        {
          "indexed": false,
          "internalType": "uint256",
          "name": "timestamp",
          "type": "uint256"
        }
      ],
      "name": "FundsDeposited",
      "type": "event"
    },
    {
      "anonymous": false,
      "inputs": [
        {
          "indexed": true,
          "internalType": "bytes32",
          "name": "batchId",
          "type": "bytes32"
        },
        {
          "indexed": false,
          "internalType": "uint256",
          "name": "totalDistributed",
          "type": "uint256"
        },
        {
          "indexed": false,
          "internalType": "uint256",
          "name": "platformFee",
          "type": "uint256"
        },
        {
          "indexed": false,
          "internalType": "uint256",
          "name": "timestamp",
          "type": "uint256"
        }
      ],
      "name": "FundsReleased",
      "type": "event"
    },
    {
      "anonymous": false,
      "inputs": [
        {
          "indexed": true,
          "internalType": "address",
          "name": "previousOwner",
          "type": "address"
        },
        {
          "indexed": true,
          "internalType": "address",
          "name": "newOwner",
          "type": "address"
        }
      ],
      "name": "OwnershipTransferred",
      "type": "event"
    },
    {
      "anonymous": false,
      "inputs": [
        {
          "indexed": true,
          "internalType": "bytes32",
          "name": "batchId",
          "type": "bytes32"
        },
        {
          "indexed": false,
          "internalType": "uint256",
          "name": "additionalAmount",
          "type": "uint256"
        },
        {
          "indexed": false,
          "internalType": "uint256",
          "name": "newTotalAmount",
          "type": "uint256"
        }
      ],
      "name": "RewardIncreased",
      "type": "event"
    },
    {
      "inputs": [
        {
          "internalType": "bytes32",
          "name": "",
          "type": "bytes32"
        },
        {
          "internalType": "uint256",
          "name": "",
          "type": "uint256"
        }
      ],
      "name": "aiInsightHashes",
      "outputs": [
        {
          "internalType": "bytes32",
          "name": "",
          "type": "bytes32"
        }
      ],
      "stateMutability": "view",
      "type": "function"
    },
    {
      "inputs": [
        {
          "internalType": "bytes32",
          "name": "",
          "type": "bytes32"
        },
        {
          "internalType": "uint256",
          "name": "",
          "type": "uint256"
        }
      ],
      "name": "annotationHashes",
      "outputs": [
        {
          "internalType": "bytes32",
          "name": "",
          "type": "bytes32"
        }
      ],
      "stateMutability": "view",
      "type": "function"
    },
    {
      "inputs": [
        {
          "internalType": "bytes32",
          "name": "",
          "type": "bytes32"
        }
      ],
      "name": "batchMerkleRoots",
      "outputs": [
        {
          "internalType": "bytes32",
          "name": "",
          "type": "bytes32"
        }
      ],
      "stateMutability": "view",
      "type": "function"
    },
    {
      "inputs": [
        {
          "internalType": "bytes32",
          "name": "",
          "type": "bytes32"
        }
      ],
      "name": "batches",
      "outputs": [
        {
          "internalType": "address",
          "name": "company",
          "type": "address"
        },
        {
          "internalType": "uint256",
          "name": "totalAmount",
          "type": "uint256"
        },
        {
          "internalType": "bool",
          "name": "released",
          "type": "bool"
        },
        {
          "internalType": "bool",
          "name": "exists",
          "type": "bool"
        },
        {
          "internalType": "bool",
          "name": "inDispute",
          "type": "bool"
        }
      ],
      "stateMutability": "view",
      "type": "function"
    },
    {
      "inputs": [
        {
          "internalType": "bytes32",
          "name": "batchId",
          "type": "bytes32"
        },
        {
          "internalType": "uint256",
          "name": "amount",
          "type": "uint256"
        }
      ],
      "name": "deposit",
      "outputs": [],
      "stateMutability": "nonpayable",
      "type": "function"
    },
    {
      "inputs": [
        {
          "internalType": "bytes32",
          "name": "batchId",
          "type": "bytes32"
        }
      ],
      "name": "disputeBatch",
      "outputs": [],
      "stateMutability": "nonpayable",
      "type": "function"
    },
    {
      "inputs": [
        {
          "internalType": "bytes32",
          "name": "batchId",
          "type": "bytes32"
        }
      ],
      "name": "getAiInsightHashes",
      "outputs": [
        {
          "internalType": "bytes32[]",
          "name": "",
          "type": "bytes32[]"
        }
      ],
      "stateMutability": "view",
      "type": "function"
    },
    {
      "inputs": [
        {
          "internalType": "bytes32",
          "name": "batchId",
          "type": "bytes32"
        }
      ],
      "name": "getAnnotationHashes",
      "outputs": [
        {
          "internalType": "bytes32[]",
          "name": "",
          "type": "bytes32[]"
        }
      ],
      "stateMutability": "view",
      "type": "function"
    },
    {
      "inputs": [
        {
          "internalType": "bytes32",
          "name": "batchId",
          "type": "bytes32"
        }
      ],
      "name": "getBatchAnnotators",
      "outputs": [
        {
          "internalType": "address[]",
          "name": "",
          "type": "address[]"
        }
      ],
      "stateMutability": "view",
      "type": "function"
    },
    {
      "inputs": [
        {
          "internalType": "bytes32",
          "name": "batchId",
          "type": "bytes32"
        },
        {
          "internalType": "uint256",
          "name": "additionalAmount",
          "type": "uint256"
        }
      ],
      "name": "increaseReward",
      "outputs": [],
      "stateMutability": "nonpayable",
      "type": "function"
    },
    {
      "inputs": [
        {
          "internalType": "bytes32",
          "name": "batchId",
          "type": "bytes32"
        }
      ],
      "name": "isBatchFunded",
      "outputs": [
        {
          "internalType": "bool",
          "name": "",
          "type": "bool"
        }
      ],
      "stateMutability": "view",
      "type": "function"
    },
    {
      "inputs": [
        {
          "internalType": "address",
          "name": "forwarder",
          "type": "address"
        }
      ],
      "name": "isTrustedForwarder",
      "outputs": [
        {
          "internalType": "bool",
          "name": "",
          "type": "bool"
        }
      ],
      "stateMutability": "view",
      "type": "function"
    },
    {
      "inputs": [],
      "name": "owner",
      "outputs": [
        {
          "internalType": "address",
          "name": "",
          "type": "address"
        }
      ],
      "stateMutability": "view",
      "type": "function"
    },
    {
      "inputs": [],
      "name": "paymentToken",
      "outputs": [
        {
          "internalType": "contract IERC20",
          "name": "",
          "type": "address"
        }
      ],
      "stateMutability": "view",
      "type": "function"
    },
    {
      "inputs": [],
      "name": "platformFeeBps",
      "outputs": [
        {
          "internalType": "uint256",
          "name": "",
          "type": "uint256"
        }
      ],
      "stateMutability": "view",
      "type": "function"
    },
    {
      "inputs": [
        {
          "internalType": "bytes32",
          "name": "batchId",
          "type": "bytes32"
        },
        {
          "internalType": "bytes32",
          "name": "insightHash",
          "type": "bytes32"
        }
      ],
      "name": "recordAiInsight",
      "outputs": [],
      "stateMutability": "nonpayable",
      "type": "function"
    },
    {
      "inputs": [
        {
          "internalType": "bytes32",
          "name": "batchId",
          "type": "bytes32"
        },
        {
          "internalType": "bytes32",
          "name": "annotationHash",
          "type": "bytes32"
        }
      ],
      "name": "recordAnnotation",
      "outputs": [],
      "stateMutability": "nonpayable",
      "type": "function"
    },
    {
      "inputs": [
        {
          "internalType": "bytes32",
          "name": "batchId",
          "type": "bytes32"
        },
        {
          "internalType": "bytes32",
          "name": "merkleRoot",
          "type": "bytes32"
        }
      ],
      "name": "recordAnnotationBatch",
      "outputs": [],
      "stateMutability": "nonpayable",
      "type": "function"
    },
    {
      "inputs": [
        {
          "internalType": "bytes32",
          "name": "batchId",
          "type": "bytes32"
        },
        {
          "internalType": "address[]",
          "name": "annotators",
          "type": "address[]"
        },
        {
          "internalType": "uint256[]",
          "name": "splitBps",
          "type": "uint256[]"
        }
      ],
      "name": "releasePaymentWithSplits",
      "outputs": [],
      "stateMutability": "nonpayable",
      "type": "function"
    },
    {
      "inputs": [],
      "name": "renounceOwnership",
      "outputs": [],
      "stateMutability": "nonpayable",
      "type": "function"
    },
    {
      "inputs": [
        {
          "internalType": "address",
          "name": "newOwner",
          "type": "address"
        }
      ],
      "name": "transferOwnership",
      "outputs": [],
      "stateMutability": "nonpayable",
      "type": "function"
    },
    {
      "inputs": [],
      "name": "treasury",
      "outputs": [
        {
          "internalType": "address",
          "name": "",
          "type": "address"
        }
      ],
      "stateMutability": "view",
      "type": "function"
    },
    {
      "inputs": [],
      "name": "trustedForwarder",
      "outputs": [
        {
          "internalType": "address",
          "name": "",
          "type": "address"
        }
      ],
      "stateMutability": "view",
      "type": "function"
    },
    {
      "inputs": [
        {
          "internalType": "bytes32",
          "name": "batchId",
          "type": "bytes32"
        },
        {
          "internalType": "bytes32",
          "name": "annotationHash",
          "type": "bytes32"
        },
        {
          "internalType": "bytes32[]",
          "name": "proof",
          "type": "bytes32[]"
        }
      ],
      "name": "verifyAnnotation",
      "outputs": [
        {
          "internalType": "bool",
          "name": "",
          "type": "bool"
        }
      ],
      "stateMutability": "view",
      "type": "function"
    }
  ],
  "bytecode": "0x60a06040526103e8600355348015610015575f5ffd5b50604051611ad4380380611ad48339810160408190526100349161012f565b80338061005a57604051631e4fbdf760e01b81525f600482015260240160405180910390fd5b610063816100c5565b5060017f9b779b17422d0df92223018b32b4d1fa46e071723d6817e2486d003becc55f00556001600160a01b03908116608052600180549482166001600160a01b0319958616179055600280549390911692909316919091179091555061016f565b5f80546001600160a01b038381166001600160a01b0319831681178455604051919092169283917f8be0079c531659141344cd1fd0a4f28419497f9722a3daafe3b4186f6b6457e09190a35050565b80516001600160a01b038116811461012a575f5ffd5b919050565b5f5f5f60608486031215610141575f5ffd5b61014a84610114565b925061015860208501610114565b915061016660408501610114565b90509250925092565b60805161193f6101955f395f81816102190152818161029f0152611448015261193f5ff3fe608060405234801561000f575f5ffd5b5060043610610153575f3560e01c80637da0a877116100bf578063c301046511610079578063c301046514610338578063c81e25ab1461034b578063ce14bb5b146103d3578063cf2493d5146103e6578063f2fde38b146103f9578063f75f97e11461040c575f5ffd5b80637da0a8771461029d5780638da5cb5b146102c3578063940491d0146102d35780639921f98f146102e6578063b06e2380146102f9578063b420d26f14610318575f5ffd5b8063572b6c0511610110578063572b6c0514610209578063594594751461024957806361d027b31461025c578063639ffa351461026f578063715018a614610282578063752f872e1461028a575f5ffd5b80631de26e161461015757806322dcd13e1461016c5780633013ce291461018857806331fde88b146101b357806346816bd5146101c65780634db86d83146101e9575b5f5ffd5b61016a610165366004611598565b61041f565b005b61017560035481565b6040519081526020015b60405180910390f35b60015461019b906001600160a01b031681565b6040516001600160a01b03909116815260200161017f565b61016a6101c1366004611598565b6106b5565b6101d96101d43660046115b8565b610739565b604051901515815260200161017f565b6101fc6101f73660046115b8565b610775565b60405161017f91906115cf565b6101d9610217366004611611565b7f00000000000000000000000000000000000000000000000000000000000000006001600160a01b0390811691161490565b61016a610257366004611598565b6107d4565b60025461019b906001600160a01b031681565b61016a61027d3660046115b8565b610873565b61016a610942565b61016a61029836600461167f565b610955565b7f000000000000000000000000000000000000000000000000000000000000000061019b565b5f546001600160a01b031661019b565b6101d96102e13660046116f8565b610e2f565b6101756102f4366004611598565b610ee2565b6101756103073660046115b8565b60066020525f908152604090205481565b61032b6103263660046115b8565b610f0d565b60405161017f919061178a565b61016a610346366004611598565b610f78565b6103996103593660046115b8565b60046020525f90815260409020805460018201546003909201546001600160a01b03909116919060ff808216916101008104821691620100009091041685565b604080516001600160a01b03909616865260208601949094529115159284019290925290151560608301521515608082015260a00161017f565b61016a6103e1366004611598565b61100d565b6101fc6103f43660046115b8565b611203565b61016a610407366004611611565b611260565b61017561041a366004611598565b61129d565b5f82815260046020526040902060030154610100900460ff16156104815760405162461bcd60e51b8152602060048201526014602482015273426174636820616c72656164792065786973747360601b60448201526064015b60405180910390fd5b5f81116104c55760405162461bcd60e51b81526020600482015260126024820152710416d6f756e74206d757374206265203e20360741b6044820152606401610478565b6001546040516323b872dd60e01b8152336004820152306024820152604481018390526001600160a01b03909116906323b872dd906064016020604051808303815f875af1158015610519573d5f5f3e3d5ffd5b505050506040513d601f19601f8201168201806040525081019061053d919061179c565b61057b5760405162461bcd60e51b815260206004820152600f60248201526e151c985b9cd9995c8819985a5b1959608a1b6044820152606401610478565b6040805160c081018252338152602080820184815283515f80825281840186528486019182526060850181905260016080860181905260a0860182905288825260048552959020845181546001600160a01b0319166001600160a01b03909116178155915194820194909455925180519293926105fe92600285019201906114d0565b50606082015160039091018054608084015160a0909401511515620100000262ff0000199415156101000261ff00199415159490941661ffff1990921691909117929092179290921617905533827f601d39dcd45235f0bb388ddd0470b1a49f02ae6eaedc7067b419f9c539cb6f18835f604051908082528060200260200182016040528015610698578160200160208202803683370190505b50426040516106a9939291906117bb565b60405180910390a35050565b5f82815260046020526040902060030154610100900460ff166106ea5760405162461bcd60e51b8152600401610478906117e3565b5f828152600660205260409081902082905551339083907f92f85c33390832a71ada21c41a05038726bb2ab54a2327ae562083889a338793906106a99085904290918252602082015260400190565b5f81815260046020526040812060030154610100900460ff16801561076f57505f8281526004602052604090206003015460ff16155b92915050565b5f818152600560209081526040918290208054835181840281018401909452808452606093928301828280156107c857602002820191905f5260205f20905b8154815260200190600101908083116107b4575b50505050509050919050565b5f82815260046020526040902060030154610100900460ff166108095760405162461bcd60e51b8152600401610478906117e3565b5f828152600760209081526040808320805460018101825590845291909220018290555182907f598a8108210132ea8df3a2057d5666734c2a86e09ff77ccd86f168d408f1ba89906108679084904290918252602082015260400190565b60405180910390a25050565b61087b6112b6565b5f8181526004602052604090206003810154610100900460ff166108b15760405162461bcd60e51b8152600401610478906117e3565b600381015460ff16156108ff5760405162461bcd60e51b815260206004820152601660248201527510985d18da08185b1c9958591e481c995b19585cd95960521b6044820152606401610478565b60038101805462ff0000191662010000179055604051339083907f3f1588a02224e1d9a1534ad85080164a22daaf731b31fd5aea7567f73a149885905f90a35050565b61094a6112b6565b6109535f611313565b565b61095d611362565b5f8581526004602052604090206003810154610100900460ff166109935760405162461bcd60e51b8152600401610478906117e3565b80546001600160a01b03163314610a065760405162461bcd60e51b815260206004820152603160248201527f4f6e6c792074686520636f6d70616e792074686174206465706f73697465642060448201527063616e2072656c656173652066756e647360781b6064820152608401610478565b600381015460ff1615610a4e5760405162461bcd60e51b815260206004820152601060248201526f105b1c9958591e481c995b19585cd95960821b6044820152606401610478565b83610a9b5760405162461bcd60e51b815260206004820152601b60248201527f4e656564206174206c65617374206f6e6520616e6e6f7461746f7200000000006044820152606401610478565b838214610ae35760405162461bcd60e51b8152602060048201526016602482015275082e4e4c2f2e640d8cadccee8d040dad2e6dac2e8c6d60531b6044820152606401610478565b5f805b83811015610b1c57848482818110610b0057610b00611811565b9050602002013582610b129190611839565b9150600101610ae6565b508061271014610b6e5760405162461bcd60e51b815260206004820152601f60248201527f53706c697473206d7573742073756d20746f20313030303020283130302529006044820152606401610478565b60038201805460ff19166001179055610b8b600283018787611533565b5060018201546003545f9061271090610ba4908461184c565b610bae9190611863565b90505f610bbb8284611882565b60015460025460405163a9059cbb60e01b81526001600160a01b03918216600482015260248101869052929350169063a9059cbb906044016020604051808303815f875af1158015610c0f573d5f5f3e3d5ffd5b505050506040513d601f19601f82011682018060405250810190610c33919061179c565b610c755760405162461bcd60e51b8152602060048201526013602482015272119959481d1c985b9cd9995c8819985a5b1959606a1b6044820152606401610478565b5f5b6002860154811015610db7575f612710898984818110610c9957610c99611811565b9050602002013584610cab919061184c565b610cb59190611863565b90508015610dae576001546002880180546001600160a01b039092169163a9059cbb919085908110610ce957610ce9611811565b5f9182526020909120015460405160e083901b6001600160e01b03191681526001600160a01b039091166004820152602481018490526044016020604051808303815f875af1158015610d3e573d5f5f3e3d5ffd5b505050506040513d601f19601f82011682018060405250810190610d62919061179c565b610dae5760405162461bcd60e51b815260206004820152601960248201527f416e6e6f7461746f72207472616e73666572206661696c6564000000000000006044820152606401610478565b50600101610c77565b506040805182815260208101849052428183015290518b917f48ab3fb0f8e8e2edf2ef06adc148522f1732f5578611ee80242452093346b07c919081900360600190a25050505050610e2860017f9b779b17422d0df92223018b32b4d1fa46e071723d6817e2486d003becc55f0055565b5050505050565b5f8481526006602052604081205480610e995760405162461bcd60e51b815260206004820152602660248201527f4e6f204d65726b6c6520526f6f74207265636f7264656420666f722074686973604482015265040c4c2e8c6d60d31b6064820152608401610478565b610ed88484808060200260200160405190810160405280939291908181526020018383602002808284375f920191909152508592508991506113909050565b9695505050505050565b6007602052815f5260405f208181548110610efb575f80fd5b905f5260205f20015f91509150505481565b5f818152600460209081526040918290206002018054835181840281018401909452808452606093928301828280156107c857602002820191905f5260205f20905b81546001600160a01b03168152600190910190602001808311610f4f5750505050509050919050565b5f82815260046020526040902060030154610100900460ff16610fad5760405162461bcd60e51b8152600401610478906117e3565b5f8281526005602090815260408083208054600181018255908452919092200182905551339083907f054eb879aed070a1ed0dbb28098937829b157152d8ab2882319f25fcd30c0b91906106a99085904290918252602082015260400190565b5f8281526004602052604090206003810154610100900460ff166110435760405162461bcd60e51b8152600401610478906117e3565b600381015460ff16156110915760405162461bcd60e51b815260206004820152601660248201527510985d18da08185b1c9958591e481c995b19585cd95960521b6044820152606401610478565b80546001600160a01b031633146110ea5760405162461bcd60e51b815260206004820181905260248201527f4f6e6c7920636f6d70616e792063616e20696e637265617365207265776172646044820152606401610478565b6001546040516323b872dd60e01b8152336004820152306024820152604481018490526001600160a01b03909116906323b872dd906064016020604051808303815f875af115801561113e573d5f5f3e3d5ffd5b505050506040513d601f19601f82011682018060405250810190611162919061179c565b6111a05760405162461bcd60e51b815260206004820152600f60248201526e151c985b9cd9995c8819985a5b1959608a1b6044820152606401610478565b81816001015f8282546111b39190611839565b9091555050600181015460405184917ff5d2f73789881fb2586ecdfa778987bc5918d9c3806cabba96deddfcf74acc77916111f691868252602082015260400190565b60405180910390a2505050565b5f818152600760209081526040918290208054835181840281018401909452808452606093928301828280156107c857602002820191905f5260205f20908154815260200190600101908083116107b45750505050509050919050565b6112686112b6565b6001600160a01b03811661129157604051631e4fbdf760e01b81525f6004820152602401610478565b61129a81611313565b50565b6005602052815f5260405f208181548110610efb575f80fd5b6112be6113a5565b6001600160a01b03166112d85f546001600160a01b031690565b6001600160a01b031614610953576112ee6113a5565b60405163118cdaa760e01b81526001600160a01b039091166004820152602401610478565b5f80546001600160a01b038381166001600160a01b0319831681178455604051919092169283917f8be0079c531659141344cd1fd0a4f28419497f9722a3daafe3b4186f6b6457e09190a35050565b61136a6113b3565b60027f9b779b17422d0df92223018b32b4d1fa46e071723d6817e2486d003becc55f0055565b5f8261139c85846113f5565b14949350505050565b5f6113ae611437565b905090565b7f9b779b17422d0df92223018b32b4d1fa46e071723d6817e2486d003becc55f005460020361095357604051633ee5aeb560e01b815260040160405180910390fd5b5f81815b845181101561142f576114258286838151811061141857611418611811565b60200260200101516114a1565b91506001016113f9565b509392505050565b5f36601480821080159061147357507f00000000000000000000000000000000000000000000000000000000000000006001600160a01b031633145b156114995761148636828403815f611895565b61148f916118bc565b60601c9250505090565b339250505090565b5f8183106114bb575f8281526020849052604090206114c9565b5f8381526020839052604090205b9392505050565b828054828255905f5260205f20908101928215611523579160200282015b8281111561152357825182546001600160a01b0319166001600160a01b039091161782556020909201916001909101906114ee565b5061152f929150611584565b5090565b828054828255905f5260205f20908101928215611523579160200282015b828111156115235781546001600160a01b0319166001600160a01b03843516178255602090920191600190910190611551565b5b8082111561152f575f8155600101611585565b5f5f604083850312156115a9575f5ffd5b50508035926020909101359150565b5f602082840312156115c8575f5ffd5b5035919050565b602080825282518282018190525f918401906040840190835b818110156116065783518352602093840193909201916001016115e8565b509095945050505050565b5f60208284031215611621575f5ffd5b81356001600160a01b03811681146114c9575f5ffd5b5f5f83601f840112611647575f5ffd5b50813567ffffffffffffffff81111561165e575f5ffd5b6020830191508360208260051b8501011115611678575f5ffd5b9250929050565b5f5f5f5f5f60608688031215611693575f5ffd5b85359450602086013567ffffffffffffffff8111156116b0575f5ffd5b6116bc88828901611637565b909550935050604086013567ffffffffffffffff8111156116db575f5ffd5b6116e788828901611637565b969995985093965092949392505050565b5f5f5f5f6060858703121561170b575f5ffd5b8435935060208501359250604085013567ffffffffffffffff81111561172f575f5ffd5b61173b87828801611637565b95989497509550505050565b5f8151808452602084019350602083015f5b828110156117805781516001600160a01b0316865260209586019590910190600101611759565b5093949350505050565b602081525f6114c96020830184611747565b5f602082840312156117ac575f5ffd5b815180151581146114c9575f5ffd5b838152606060208201525f6117d36060830185611747565b9050826040830152949350505050565b60208082526014908201527310985d18da08191bd95cc81b9bdd08195e1a5cdd60621b604082015260600190565b634e487b7160e01b5f52603260045260245ffd5b634e487b7160e01b5f52601160045260245ffd5b8082018082111561076f5761076f611825565b808202811582820484141761076f5761076f611825565b5f8261187d57634e487b7160e01b5f52601260045260245ffd5b500490565b8181038181111561076f5761076f611825565b5f5f858511156118a3575f5ffd5b838611156118af575f5ffd5b5050820193919092039150565b80356bffffffffffffffffffffffff198116906014841015611902576bffffffffffffffffffffffff196bffffffffffffffffffffffff198560140360031b1b82161691505b509291505056fea26469706673582212204c08d45188e1cdb66a931508c589d9691137cd9c66618cb853800ac1f8da145364736f6c634300081c0033",
  "linkReferences": {},
  "deployedLinkReferences": {}
}